:020000040800F2
:10000000201300200101000879270008312700088B
:1000100075270008150200089D3C0008000000003C
:1000200000000000000000000000000013010008B4
:100030008502000800000000170100087D27000865
:100040001B0100081B0100081B0100081B01000820
:100050001B0100081B0100081B0100081B01000810
:100060001B0100081B0100081B01000879020008A1
:100070001B0100081B0100081B0100081B010008F0
:100080001B0100081B0100081B0100081B010008E0
:10009000653B00081B0100081B01000889020008DD
:1000A0001B0100081B0100081B0100081B010008C0
:1000B0001B0100081B0100081B0100081B010008B0
:1000C0001B0100081B0100081B0100081B010008A0
:1000D0001B0100081B0100081B0100081B01000890
:1000E0001B0100081B0100081B010008DFF80CD0F1
:1000F00000F018F800480047253F000820130020B2
:100100000648804706480047FEE7FEE7FEE7FEE7B1
:10011000FEE7FEE7FEE7FEE7FEE7FEE78D270008C5
:10012000ED000008064C074D06E0E06840F00103D2
:1001300094E8070098471034AC42F6D3FFF7DAFF93
:1001400080440008A044000870B58C1810F8015BCA
:1001500015F0070301D110F8013B2A1106D110F860
:10016000012B03E010F8016B01F8016B5B1EF9D164
:100170002B0705D40023521E0DD401F8013BFAE7EA
:1001800010F8013BCB1A921C03E013F8015B01F855
:10019000015B521EF9D5A142D8D3002070BD0000EA
:1001A0000146406A826A12F0500F03D0006A026B67
:1001B000084610470168826A42F4007282628968C8
:1001C00001F46021B1F5602F01D1C16811B100F0D7
:1001D0005DB900BF816A21F480718162816AC904BE
:1001E00048BF00F053B9816A41F00101816200F01B
:1001F0004DB90000406A816A41F040018162C16AE4
:1002000041F00401C16200F079B90000406A00F0D9
:1002100073B90000FEE700000020704740F2B861AB
:1002200040F29442C2F20001C2F2000200200A60D1
:100230007047000080B540F2B860C2F2000000686C
:1002400040F2CC31D0F81802C2F2000102784378B3
:100250000A70027990F802C090F803E00A714279BE
:100260004B7083794A71C279002081F802C081F80D
:1002700003E08B71CA7180BD40F2BC60C2F2000025
:1002800000F0B4BBFEE700004FF4807000F0B4BD96
:10029000B0B581B00022009290F82420012A03D149
:1002A0000221084601B0B0BD4B680122062B80F840
:1002B00024203DD802684FF4787CD2F834E09CFAD0
:1002C000ACF3D1E90052B3FA83F3013A5A431F2346
:1002D00003FA02F22EEA02039CFAACF24C68B2FA7C
:1002E00082F2013C6243954002682B4353630B68E2
:1002F0000A2B5DD3D268382393FAA3F50C68B5FABC
:1003000085F50A3C6543072404FA05F5D1F808C0D1
:1003100022EA050593FAA3F20B68B2FA82F1A3F17F
:100320000A0251430CFA01F102682943D16059E0F5
:1003300002680C2B1ED8126B4FF4787C9CFAACF53B
:10034000D1E90034B5FA85F5073C65431F2404FA6A
:1003500005F522EA05059CFAACF24C68B2FA82F285
:10036000073C6243934002682B4313630B680A2BDC
:10037000C0D21DE0D26A4FF4787C9CFAACF5D1E98A
:100380000034B5FA85F50D3C65431F2404FA05F5E4
:1003900022EA05059CFAACF24C68B2FA82F20D3CF6
:1003A0006243934002682B43D3620B680A2BA1D2AD
:1003B00013694FF0380C9CFAACF50C68B5FA85F56A
:1003C0006543072404FA05F58A6823EA05059CFAC3
:1003D000ACF40B68B4FA84F1594302FA01F10268F3
:1003E0002943116123F001014FF0000C10294FF057
:1003F00000010CD142F20841C4F20101A1F108054B
:10040000AA4209D0816A41F020018162012180F86D
:1004100024C0084601B0B0BD0A68120230D40A6890
:10042000102B42F400020A602AD140F22001C2F2ED
:10043000000109684DF68362C4F21B32A1FB02126F
:10044000910C01EB8101490000910099C1B1009923
:1004500001390091009999B10099013900910099F1
:1004600071B1009901390091009949B100990139A0
:100470000091009900294FF00001E8D1C7E700BFC3
:10048000002180F824C0084601B0B0BDB0B540F2EC
:100490009810C2F200000178002918BFB0BD40F2E8
:1004A0005011C2F2000140F29C1CD1E90032C2F2AC
:1004B000000CACF8003040F29A13C2F20003D1E90C
:1004C00002E41A8040F61432C2F20002A2F800E000
:1004D00040F61632C2F20002D1E90451148040F213
:1004E000A012C2F20002118040F29E11C2F200017D
:1004F0000D8001210170B0BD704700007047000001
:10050000B0B5002800F0B0800446806A20B12068B1
:100510008168C9070BD039E00020E06284F824002C
:10052000204600F0A3F820688168C9072ED1A06A90
:10053000C00645D46068E168E269A36A41F2021529
:10054000AB43023310430222A36292FAA2F2B2FA40
:1005500082F201FA02F2A16863694D1EB5FA85F5CF
:10056000B1F5807F4FEA551518BF2902012B40EAEB
:10057000020037D1E2684AB3A26A42F02002A262C6
:10058000E26A42F00102E2622CE000BF816821F0E1
:100590000101816000F04EFD054600BF20688068C3
:1005A000C007C4D000F046FD401B0328F6D3A06A64
:1005B00040F01000A062E06A40F00100E062A06A32
:1005C000A06A40F01000A0620120B0BDA2694FF403
:1005D000604393FAA3F3013AB3FA83F39A401143C9
:1005E00041F400612268A3685568B3F5807F25F463
:1005F000694541EA0501516091684FF2FD75CFF6FA
:10060000E17501EA050141EA0001916001D0012B89
:100610000AD121694FF4700292FAA2F20139B2FABA
:1006200082F32268994000E00021D36A23F470032A
:100630001943D162916840F6FE62CFF61F721140F5
:10064000814207D10020E062A16A012262F3010128
:10065000A162B0BDA06A40F0100020F00200A062CC
:10066000E06A40F00100E0620120B0BDB0B584B0A6
:10067000044640F60000C4F20100216800F5E05293
:10068000914201D004B0B0BD41F21801C4F20201A0
:100690000A6842F400720A60096801F4007100916E
:1006A00000991F21009103210191694600F0B0FBE0
:1006B00040F2BC650820C2F20005C4F2020000212D
:1006C000C5E9000105F1080080224FF400734FF4E2
:1006D000006C4FF0200E80E80E502846E96100F0D3
:1006E00011FB25626C6204B0B0BD0000F0B581B0B2
:1006F00015460446026842F60000C4F20100824238
:100700000E4605D042F20040C4F2010082420BD1F5
:1007100042F20440C4F20100006810F4702F03D0CC
:10072000012001B0F0BD00BF94F82400012803D1DE
:10073000022001B0F0BD00BF012084F82400002099
:1007400000909068C00743D190684DF6836140F0F7
:100750000100906040F22000C2F200000068C4F284
:100760001B31A0FB0101880C00900098A8B100BFCC
:10077000009801380090009878B1009801380090F6
:10078000009850B1009801380090009828B1009866
:100790000138009000980028EAD100F04BFC074691
:1007A00022689068C00713D100F044FCC01B0228E7
:1007B000F6D9A06A40F01000A062E06A40F00100A3
:1007C000E062002084F82400012001B0F0BD00BFE9
:1007D00042F20440A16AC4F2010040F60173994359
:1007E00000F57F7301F580719A42A16246D0A06A3C
:1007F00020F48010A0625068400504D5A06A012151
:1008000061F30D30A062A16A0020C9044FF000011D
:1008100044BFE16A21F00601E16284F82400206A05
:1008200040F2A111C0F6000140F20D2340F2F5178D
:1008300000F1280CC0F60003C0F600078CE88A001F
:100840006FF00201116091682B4641F48071916054
:1008500002F14C01324600F085FA2068816801F40B
:1008600060228168B2F5602F0CBF41F4A00141F411
:1008700080118160002001B0F0BD00BF016811F45B
:10088000702FB4D0A16A41F48011A16200684005C4
:10089000B9D5B3E7B0B582B0044690F8240001287A
:1008A00002D1022002B0B0BD012084F82400002053
:1008B000019020688168C90742D1816841F0010137
:1008C000816040F22000C2F2000000684DF68361B2
:1008D000C4F21B31A0FB0101880C01900198A0B16A
:1008E000019801380190019878B101980138019080
:1008F000019850B1019801380190019828B10198F0
:100900000138019001980028EAD100F093FB0546D8
:1009100020688168C90713D100F08CFB401B0228B6
:10092000F6D9A06A40F01000A062E06A40F0010031
:10093000E062002084F82400012002B0B0BD00BFB6
:10094000A26A42F2044140F60173C4F201019A43E3
:1009500002F5807301F57F729042A36232D0A36AE0
:1009600023F48013A36243685B0504D5A36A0125C1
:1009700065F30D33A362A56A0023ED044FF0000573
:1009800044BFE56A25F00605E56284F824306FF07F
:1009900002030360436843F020034360836803F469
:1009A0006023B3F5602F05D1904217D1096811F487
:1009B000702F13D0816841F480118160002002B053
:1009C000B0BD00BF0B6813F4702FC8D0A36A43F406
:1009D0008013A3620B685B05C8D4CCE7816841F43F
:1009E000A0018160002002B0B0BD0000F0B581B070
:1009F0006C25C4F20205044655F86C1C00682F27CC
:100A0000C4F202073026B842C4F2020610DDB0423A
:100A10001CD04422C4F2020290421DD05822C4F2DB
:100A20000202904222D14FF400220A4226D167E00E
:100A30000822C4F20202904214D01C22C4F2020224
:100A4000904213D180220A4218D159E04FF400623B
:100A50000A4213D154E000BF4FF400420A420DD1C4
:100A60004EE000BF08220A4208D149E04FF0006280
:100A7000A84208BF4FF400020A4241D001680907AA
:100A80003ED50168B84221F0080101600EDDB04298
:100A900018D04421C4F20201884217D05821C4F270
:100AA0000201884218D14FF400211BE00821C4F252
:100AB000020188420ED01C21C4F2020188420BD1EF
:100AC00080210FE04FF400610CE000BF4FF40041C3
:100AD00008E000BF082105E04FF00061A84208BF10
:100AE0004FF4000145F8681C616B4FF4806241F0DF
:100AF00001016163216B228411B12046884720687F
:100B000055F86C1CB84211DDB0421DD04422C4F22D
:100B1000020290421ED05822C4F20202904223D117
:100B20004FF480220A4227D168E000BF0822C4F2B5
:100B30000202904214D01C22C4F20202904213D14D
:100B400040220A4218D159E04FF480620A4213D180
:100B500054E000BF4FF480420A420DD14EE000BF86
:100B600004220A4208D149E04FF08062A84208BF3F
:100B70004FF480020A4241D0016849073ED501681E
:100B8000890603D4016821F004010160B8420FDD39
:100B9000B04219D04421C4F20201884218D0582131
:100BA000C4F20201884219D14FF480211CE000BF39
:100BB0000821C4F2020188420ED01C21C4F20201B5
:100BC00088420BD140210FE04FF480610CE000BF60
:100BD0004FF4804108E000BF042105E04FF0806140
:100BE000A84208BF4FF4800145F8681CE16A112251
:100BF00084F8212011B120468847206855F86C1CE4
:100C0000B84211DDB0421DD04422C4F2020290422B
:100C10001ED05822C4F20202904223D14FF4003277
:100C20000A4227D16CE000BF0822C4F202029042BF
:100C300014D01C22C4F20202904213D120220A4294
:100C400018D15DE04FF400720A4213D158E000BFA2
:100C50004FF400520A420DD152E000BF02220A4274
:100C600008D14DE04FF00072A84208BF4FF40012C7
:100C70000A4245D00168890742D50168890603D434
:100C8000016821F002010160B8420FDDB04219D0C5
:100C90004421C4F20201884218D05821C4F2020152
:100CA000884219D14FF400311CE000BF0821C4F282
:100CB000020188420ED01C21C4F2020188420BD1ED
:100CC00020210FE04FF400710CE000BF4FF4005101
:100CD00008E000BF022105E04FF00071A84208BF04
:100CE0004FF4001145F8681C606B6063A16A4FF413
:100CF0008070208421B1204601B0BDE8F040084753
:100D000001B0F0BD002804BF012070472DE9F0417B
:100D100090F8211000F1080E002904BF002180F88E
:100D20002010D0E9001800F114069EE8085070CE9B
:100D30000F6843F6F07227EA020242EA08021A43F9
:100D400042EA0C0242EA0E0222432A4332430A607C
:100D500000210122416380F82120BDE8F0410846CE
:100D60007047000080B590F820C0BCF1010F04BFAF
:100D7000022080BD40F2012CA0F820C0D0E900CEB6
:100D8000DCF80000BEF1100F20F00100CCF80000EC
:100D90000846CCF8043004BF10460A46CCF80800D8
:100DA000CCF80C20DCF8000040F00200CCF8000089
:100DB000DCF8000040F00400CCF80000DCF8000093
:100DC00040F00800CCF80000DCF8000040F0010022
:100DD000CCF80000002080BD10B582B0019000F07A
:100DE00029F9044600F026F90199001B8842F9D33D
:100DF00002B010BD7047000040F21441C4F201017E
:100E00000A68024214BF08607047FFF7F3BF000092
:100E10002DE9F04F82B040F20C4C41F200424FF607
:100E2000FF7EC4F2010CC4F2010204270024012356
:100E3000C1F2100E4FF0000A4FF00009904208BFB7
:100E40000327009742E000BF012504F00C030F27A1
:100E50009F402BEA070705FA03F33B4342F826308D
:100E6000D1F804B040F20045C4F201055FEACB328C
:100E70002A6854BF22EA080242EA08022A606A6825
:100E80005FEA8B3354BF22EA080242EA08026A6032
:100E90005FEACB23AA6854BF22EA080242EA0802AA
:100EA0005FEA8B23AA60DCF800204FF0010354BFF7
:100EB00022EA080242EA0802CCF800200AF1010AFC
:100EC000BAF1100F04F1040400F0A4800A6803FAD8
:100ED0000AF812EA080FF1D04A68724512DC122AA9
:100EE00056D8DFE802F0350B45495555555555554F
:100EF000555555555555554D510000BFD1F80C90DD
:100F000046E000BF4FF6FF77C1F22107BA420FDC7F
:100F10000027C1F21107BA421AD00027C1F2120706
:100F2000BA4215D00027C1F22107BA4210D02FE0F3
:100F30000027C1F22207BA420AD00027C1F23107C6
:100F4000BA4205D00027C1F23207BA4220D100BF11
:100F50008A684AB1012A14BFC0F81480C0F8108012
:100F60004FF0080914E000BF4FF0040910E000BF83
:100F7000CA6802F108090BE04FF0000908E000BF61
:100F8000CA6802F1040903E0CA6802F10C0900BF53
:100F900022460546BAF1080F24BF203A04352E68D0
:100FA0000F279740BE4309FA02F232432A60CA79FA
:100FB000D2067FF583AF41F21803C4F202031A6828
:100FC0004FEA9A0642F001021A601A6840F60003DE
:100FD00002F001020192019A40F20042C4F20102C1
:100FE000A2F57E7252F826B0C4F2010398420FD0E7
:100FF00040F60043C4F2010398423FF425AF41F2AA
:101000000003C4F20103009D984208BF02251CE7BB
:1010100000251AE702B0BDE8F08F000080680840A4
:1010200018BF012070470000002A08BF09040161B1
:101030007047000040F61830C2F2000000687047A8
:1010400040F61830C2F200000168013101607047BB
:1010500080B542F20000C4F20200016841F01001C4
:101060000160032000F092F8002000F005F800F085
:1010700019F8002080BD000010B5044601F034F8D6
:1010800044F6D351C1F26201A0FB0101880901F0CD
:1010900037FB4FF0FF302146002200F04BF80020D4
:1010A00010BD000080B582B041F21800C4F2020009
:1010B000016841F001010160006800F00100019049
:1010C0000198032000F062F86FF00B00002100226D
:1010D00000F030F86FF00A000021002200F02AF83A
:1010E0006FF009000021002200F024F86FF00300E7
:1010F0000021002200F01EF84FF0FF3000210022F6
:1011000000F018F80420C4F201000168022262F322
:101110001A61016002B080BD00F01F01012202FAD5
:1011200001F14EF200124009CEF2000242F8201006
:101130007047000010B54EF60C5CCEF2000CDCF8E7
:101140000030C3F3022E8EF00704042C28BF0424C1
:10115000BEF103034FF0FF3E0EFA04F438BF002344
:10116000A14399400EFA03F39A43114300F1604200
:1011700000F00F03090102F56442043B63440028B8
:1011800048BF03F10C02117010BD00004EF60C5167
:10119000CEF200010A684FF6FF031A4060F30A22FC
:1011A00042F0806040F0FD700860704701F07F0CF5
:1011B00000EB4C1C0CF1280C00EB4110090658BF49
:1011C00000F5027C0020002A19BFCCF8063001216E
:1011D000ACF8043000218CF80A107047704700000A
:1011E000D0F81C3400EB4110C26B184601F07ABDF8
:1011F000D0F81C3400EB4110D0F81C22184601F046
:10120000CBBD0000B0B5054601F07F0005EB4013F3
:101210000A4603F12801140658BF03F5027108704D
:1012200095F8E803D20901284A7004BF0220B0BD36
:101230002868012285F8E82302F05AFA002085F890
:10124000E803B0BDB0B5054601F07F000A4605EBE6
:101250004011283105EB4213140658BF03F5027103
:10126000087095F8E8030024D20901288C704A70B0
:1012700004BF0220B0BD2868012285F8E82302F0EF
:10128000C7FA204685F8E843B0BD0000F0B581B04C
:10129000074601F07F0007EB40150C4605F12801D9
:1012A000260658BF05F502710870E009487097F8E6
:1012B000E8030A610128CB7002D1022001B0F0BD21
:1012C0003868012287F8E82302F0E6F8002087F862
:1012D000E80301B0F0BD0000B0B501F07F0190F867
:1012E000E853044600EB4110012D4FF0000500F5D6
:1012F000077C8CE82C0080F8095280F8081204BFA3
:101300000220B0BD00F502712068012284F8E823B4
:1013100002F0E2FA284684F8E853B0BDB0B501F017
:101320007F050A46044600EB451000F1280104EB56
:101330004210130658BF00F5027194F8E803012328
:10134000D20901288B700D704A7004BF0220B0BD15
:10135000206884F8E83302F091FA1DB1002084F887
:10136000E803B0BD206804F57B7102F04FFA00205D
:1013700084F8E803B0BD0000B0B5054601F07F0079
:1013800005EB401101F8280F01F1140000241CC0E6
:1013900095F8E803012201284A7004BF0220B0BD7D
:1013A000286885F8E82302F097FA204685F8E84394
:1013B000B0BD00002DE9F04F83B00446006802F094
:1013C000D7FB000402D420680EE000BF0027ADF870
:1013D0000A70ADF808702068B0F94410B1F1FF3F11
:1013E000ADF80A1040F3968002F0C2FB400519D513
:1013F0002068B0F8441021F48061A0F84410204621
:1014000000F046FC94F8E80301280BD001200025E9
:1014100084F8E80384F824502068002102F0F2FBED
:1014200084F8E853206802F0A3FB014620684904D1
:1014300005D5B0F8441021F48041A0F8441002F022
:1014400097FB01462068890405D5B0F8441021F4C3
:101450000051A0F8441002F08BFB01462068C9043B
:1014600013D5B0F8401021F00401A0F840104FF45B
:101470003D41A0F84010204600F018FC2068B0F86C
:10148000441021F48051A0F8441002F071FB0005D3
:1014900019D52068B0F8441021F40061A0F8441078
:1014A000B0F8401041F00801A0F84010B0F840102A
:1014B00041F00401A0F8401002F05AFBC00402D42D
:1014C000204600F031FC206802F052FB800507D472
:1014D000206802F04DFBC00511D403B0BDE8F08FC9
:1014E0002068B0F8441021F40071A0F844102046A0
:1014F00000F0E0FB206802F03BFBC005EDD5206862
:10150000B0F8441021F48071A0F8441003B0BDE895
:10151000F08F00BF04F57B7148F60F7901910BE065
:101520002046FFF75DFE00BF2068B0F94410002997
:10153000ADF80A107FF558AFBDF80A1011F00F0B87
:1015400034D030F82B104FEA4B08ADF80810BDF935
:101550000810B1F1FF3F00F3098130F8181040F690
:101560008F72114020F8181004EB4B1999F81212E1
:1015700009F5027A002900F0AD809AF8001030F8E1
:101580002120B0F85030520403EBC10100EB4101BF
:1015900000F1B880D1F80C646FF39F26002E00F0A4
:1015A000BF80D9F81C12B9F81022B4E0BDF80A20A7
:1015B0000188D20628D401EA09010180B0F8501050
:1015C00094F8282001EBC20100EB4100D0F804049C
:1015D000E16B6FF39F2060640844E06320460021C4
:1015E000FFF7FEFD94F8240000289DD0206C002811
:1015F0009AD194F82400216840F08000C0B2A1F88C
:101600004C0084F824708FE7ADF80810BDF808107E
:10161000090541D4BDF90810B1F1FF3F3FF784AF90
:10162000018840F68F7211400180B0F8501094F894
:10163000082201EBC20100EB4101D1F80C346FF339
:101640009F23C4F8243263B1D4F81C12B4F80C22DE
:1016500002F092FAD4F81C02D4F824120844C4F818
:101660001C0220460021FFF7C3FD2068B0F850108F
:10167000D4F818223F2AC0F01D814FF4F8465301D8
:1016800006EA4216D20608BF06F5F84303F4F8420C
:1016900002F5004214E100BFB0F8501094F808229F
:1016A00001EBC20100EB4101D1F80C34B4F80C227B
:1016B00001996FF39F23C4F8243202F05DFA206889
:1016C00040F68F72018811400180204600F00AFB2D
:1016D0002AE700BFB0F850109AF8002001EBC201D1
:1016E00000EB4101D1F80C646FF39F26002E00F04F
:1016F000DF80D9F81C12B9F80C22334602F03CFA0C
:101700001CE000BFD1F804646FF39F2646B1D9F8FE
:101710001C12B9F80E22334602F02EFA01E000BF87
:10172000002620689AF8001040F60F7330F8212048
:101730001A4048F2C0031A4320F82120D9F8242285
:10174000D9E9871032443144C9F82422C9F81C125F
:1017500020B1D9F81822B24240F288809AF80010DD
:101760002046FFF745FD48F60F790027BDF8080031
:1017700000067FF5D9AE206804EB4B1630F8181040
:1017800006F1280501EA090120F8181096F8321030
:10179000A1B1297830F82120B0F85030520603EB7F
:1017A000C10100EB41011DD4D1F80C346FF39F232C
:1017B00073640BB3F16B328E1CE000BFB0F85020A5
:1017C000297802EBC10200EB4202D2F804346FF335
:1017D0009F237364F3B1F16BB28D02F01BFA2068A2
:1017E000297817E0D1F804346FF39F2373641BB199
:1017F000F16BF28D02F00EFA2068297840F60F7333
:1018000030F821201A4048F2C00303F57F531A43F1
:1018100020F82120B0F8502002EBC10200EB420278
:10182000D2F80434D6E90F526FF39F2373642B442C
:10183000002AF3633FF474AE01F07F0604EB461117
:1018400001F8286FC1E9053294F8E823CF61012A35
:101850004FF001024A703FF467AE012284F8E8239A
:1018600002F03AF884F8E8735EE600BF9AF80020C8
:10187000002702F07F0304EB4312C2E9871094F8BB
:10188000E80348F60F790128C2F8247282F8097239
:1018900082F808323FF46AAF206802F50271012233
:1018A00084F8E82302F018F884F8E8735EE700BFD4
:1018B000002643E702F0010303EB5202920292B2C8
:1018C00000F20C4343F81120018843F60F721140D7
:1018D00048F2C00202F53F525140018024E6000068
:1018E0002DE9F04385B0002800F0A881044690F867
:1018F000E90328B9002084F8E803204600F0A4F9A1
:101900004FF0030884F8E983206801F075FF94E83C
:10191000EF508DE8E05001F0E9FE2068002100253D
:1019200002F06EF94FF48070208540F20110A4F8A7
:1019300048004FF48170A4F868004FF48270A4F856
:10194000A80040F20510A4F8C80040F20710A4F85F
:1019500008014FF48470A4F828010220A4F8740050
:1019600084F84802A4F874000420A4F8B40084F8B1
:101970008802A4F8B4000520A4F8D40084F8A802D2
:10198000A4F8D400062084F8E800A4F8F40084F851
:10199000C802A4F8F4000720A4F8140184F8E802AF
:1019A000A4F814010820A4F8340184F80803A4F86A
:1019B0003401092084F84801A4F8540184F828036C
:1019C000A4F854010A2084F86801A4F8740184F88A
:1019D0004803A4F874010B2084F88801A4F894014A
:1019E00084F86803A4F894010C2084F8A801A4F8F2
:1019F000B40184F88803A4F8B4010D2084F8C80168
:101A0000A4F8D40184F8A803A4F8D4010E2004F1AA
:101A1000140E84F8E801A4F8F40184F8C803A4F8CB
:101A2000F40194E88F009EE84050D4F8209084F8A8
:101A30008880A4F8948084F86882A4F894804FF099
:101A40000108A58684F82B50C4E90E552564A4F836
:101A5000548084F84B50C4E91655256684F86B50C1
:101A6000C4E91E55C4F8805084F8898084F88B50EE
:101A7000C4E92655C4F8A05084F8AB50C4E92E55EB
:101A8000C4F8C05084F8CB50C4E93655C4F8E050CF
:101A900084F8E98084F8EB50C4E93E55C4F800515D
:101AA00084F80B51C4E94655C4F8205184F82B51F1
:101AB000C4E94E55C4F8405184F8498184F84B512B
:101AC000C4E95655C4F8605184F8698184F86B51B3
:101AD000C4E95E55C4F8805184F8898184F88B513B
:101AE000C4E96655C4F8A05184F8A98184F8AB51C3
:101AF000C4E96E55C4F8C05184F8C98184F8CB514B
:101B0000C4E97655C4F8E05184F8E98184F8EB51D2
:101B1000C4E97E55C4F8005284F8095284F808528A
:101B2000A58684F80B52C4E98655C4F8205284F87F
:101B3000295284F82882A4F8548084F82B52C4E9EE
:101B40008E55C4F8405284F8495284F84B52C4E987
:101B50009655C4F8605284F8695284F86B52C4E90F
:101B60009E55C4F8805284F8895284F88B52C4E997
:101B7000A655C4F8A05284F8A95284F8AB52C4E91F
:101B8000AE55C4F8C05284F8C95284F8CB52C4E9A7
:101B9000B655C4F8E05284F8E95284F8EB52C4E92F
:101BA000BE55C4F8005384F8095384F80B53C4E9B4
:101BB000C655C4F8205384F8295384F82B53C4E93C
:101BC000CE55C4F8405384F8495384F84B53C4E9C4
:101BD000D655C4F8605384F8695384F86B53C4E94C
:101BE000DE55C4F8805384F8895384F88B53C4E9D4
:101BF000E655C4F8A05384F8A95384F8AB53C4E95C
:101C0000EE55C4F8C05384F8C95384F8CB53C4E9E3
:101C1000F655C4F8E053CDE90076CDE902CECDF813
:101C2000109001F0DBFD84F8245084F8E9832068EB
:101C300001F0D2FD284605B0BDE8F0830125284615
:101C400005B0BDE8F083000080B582B0006845F6BD
:101C50000041C4F2000188421CBF02B080BD41F2C5
:101C60001C00C4F202000168002241F4000101607E
:101C70000068002100F40000019001981420FFF793
:101C800059FA142002B0BDE88040FFF745BA0000C1
:101C900010B50446D0F81C04012101F071F9D4F804
:101CA0001C04BDE8104001F035B90000D0F81C0458
:101CB00001F050B9D0F81C0401F054B910B5044635
:101CC00090F8E803012804BF022010BD012084F829
:101CD000E80384F82410206801F094FF002084F8C1
:101CE000E80310BDD0F81C2400F57B71104601F00C
:101CF00053B9000010B5044690F8E803012804BF6A
:101D0000022010BD012084F8E80320460121FFF7DE
:101D100065FA206801F05EFD206801F019FF0020DF
:101D200084F8E80310BD000010B50446D0F81C0488
:101D300001F074F9A069002808BF10BD4EF61050DC
:101D4000CEF20000016841F00601016010BD000004
:101D50002DE9F04182B00446007841F22006C00728
:101D6000C4F2020608D12068810729D4C00631D404
:101D7000002002B0BDE8F08156F8040C47F20007DD
:101D800040F0805046F8040C56F8040CC4F20007EA
:101D900000F0805001900198386840F480703860FD
:101DA000FFF748F9054600BF3868C0051ED4FFF7A5
:101DB00041F9401B6428F7D9032002B0BDE8F08147
:101DC00056F81C1CA26821F44041114346F81C1C23
:101DD000C006CDD556F81C0CE16820F480000843FD
:101DE00046F81C0C002002B0BDE8F0813068616844
:101DF000484010F4407FB6D030684FF4803292FAF9
:101E0000A2F340F20047B3FA83F3C4F2422701255C
:101E100047F8235092FAA2F220F44071B2FA82F20B
:101E20000023800747F82230316007D430686168AA
:101E300020F440700843306095E700BFFFF7FAF8E0
:101E40000546022741F2883897FAA7F097FAA7F0DB
:101E50000028304608BF0430006897FAA7F1B1FAAD
:101E600081F101F01F01C840C007DFD1FFF7E2F8A0
:101E7000401B4045E8D99FE72DE9F04742F20004B6
:101E8000C4F202040D462168814601F0070041F2C8
:101E90000408A842C4F202082AD2206820F00700F1
:101EA00028432060206800F00700A84240F0FE8030
:101EB000D9F80000810708D5D8F80010D9F8082013
:101EC00021F0F0011143C8F80010C0072AD0D9F85A
:101ED0000400022800F0AC80012840F0B3804FF4E9
:101EE000003090FAA0F158F8041C90FAA0F0B0E08D
:101EF000D9F80000810708D5D8F80010D9F80820D3
:101F000021F0F0011143C8F80010C0072AD1206861
:101F100020F0070028432060206800F00700A84256
:101F200040F0C480D9F80000410708D5D8F8001067
:101F3000D9F80C2021F4E0611143C8F80010000723
:101F400009D5D8F80000D9F8101020F4605040EA04
:101F5000C100C8F8000000200027FFF78DF83846C0
:101F6000BDE8F087D9F8040002280BD0012813D16E
:101F70004FF4003090FAA0F158F8041C90FAA0F049
:101F800011E000BF4FF0007090FAA0F158F8041C67
:101F900090FAA0F007E000BF022090FAA0F158F8F4
:101FA000041C90FAA0F0B0FA80F000F01F0021FAB3
:101FB00000F0C00700F07A80D8F80000D9F80410CB
:101FC00020F003000843C8F80000FFF733F8D9F801
:101FD00004100646012941F2883A4FF0030714D055
:101FE00002291ED1D8F8000000F00C0008283FF4A8
:101FF0008EAFFFF71FF8801B5045F3D9AFE700BF46
:10200000FFF718F8801B5045A9D8D8F8000000F059
:102010000C000428F4D17AE7FFF70CF8801B504538
:102020009DD8D8F8000010F00C0FF5D16FE700BF75
:102030004FF0007090FAA0F158F8041C90FAA0F04C
:1020400007E000BF022090FAA0F158F8041C90FAB3
:10205000A0F0B0FA80F000F01F0021FA00F0C007F5
:1020600024D0D8F80000D9F8041020F00300084369
:10207000C8F80000FEF7DEFFD9F804100546012974
:1020800041F288344FF003071AD0022926D100BF4D
:10209000D8F8000000F00C0008283FF443AFFEF72A
:1020A000C9FF401BA042F3D959E700BF0120BDE89A
:1020B000F08700BFFEF7BEFF401BA0423FF64FAFC8
:1020C000D8F8000000F00C000428F3D12AE700BF84
:1020D000FEF7B0FF401BA0423FF641AFD8F800002A
:1020E00010F00C0FF4D11DE741F2040CC4F2020C05
:1020F000DCF8003003F00C01082941F20021C0F2A5
:102100007A012BD14FF4701090FAA0F003F4701202
:10211000B0FA80F022FA00F044F26D42C0F60002FC
:10212000125CD80306D440F60010C0F23D0002FB5A
:1021300000F113E0DCF800004FF4003393FAA3F34E
:1021400000F40030B3FA83F3D84044F25B43C0F6A6
:102150000003185CB1FBF0F000FB02F1DCF80000BA
:10216000F02292FAA2F200F0F000B2FA82F2D0402D
:1021700044F25D42C0F60002105C21FA00F040F229
:102180002001C2F200010860704700002DE9F04311
:1021900081B08146007841F20006C007C4F2020611
:1021A0002AD199F80000800740F1C980706810F0CA
:1021B0000C0F07D0706800F00C0008285ED1706822
:1021C000C0035BD4022090FAA0F1316890FAA0F02D
:1021D000B0FA80F000F01F0021FA00F0C00704D030
:1021E000D9F81000012840F004813168D9F81400B2
:1021F000F82292FAA2F29BE0706800F00C0004282A
:1022000014D14FF4003090FAA0F1316890FAA0F0A8
:10221000B0FA80F000F01F0021FA00F0C007C0D033
:10222000D9F804000028BCD1E3E000BF706800F0DA
:102230000C00082802D17068C003E2D4306820F492
:1022400080303060306820F480203060FEF7F2FE8D
:1022500005464FF4003400BF94FAA4F0306894FAB5
:10226000A4F1B1FA81F101F01F01C840C0072BD0E1
:10227000FEF7E0FE401B6428EED99DE1D9F810106E
:10228000012090FAA0F20023B2FA82F2C4F24223B3
:10229000002943EA82012DD00860FEF7CBFE0546F7
:1022A000022400BF94FAA4F0306894FAA4F1B1FAC1
:1022B00081F101F01F01C840C00733D1FEF7BAFE1B
:1022C000401B0228EED977E1D9F80400002800F07D
:1022D0002F81B0F5A02F00F04F81B0F5803F00F0C6
:1022E0004F81306820F480303060306820F48020E6
:1022F00049E100BF00200860FEF79CFE054602246D
:1023000094FAA4F0306894FAA4F1B1FA81F101F0E2
:102310001F01C840C00712D0FEF78CFE401B0228E8
:10232000EED949E13168D9F81400F82292FAA2F204
:10233000B2FA82F221F0F80190400843306099F837
:102340000000000747D5D9F818200023012090FA93
:10235000A0F1C4F24223B1FA81F1002A03F59062A0
:102360001AD042F82100FEF765FE0546022400BFA0
:1023700094FAA4F094FAA4F0706A94FAA4F1B1FA71
:1023800081F101F01F01C840C00721D1FEF752FEC4
:10239000401B0228ECD90FE1002042F82100FEF793
:1023A00049FE0546022400BF94FAA4F094FAA4F072
:1023B000706A94FAA4F1B1FA81F101F01F01C840EA
:1023C000C00708D0FEF736FE401B0228ECD9F3E028
:1023D0000120FEF701FD99F8000040070ED4D9F85E
:1023E0001C40002C00F02481706800F00C000828CC
:1023F0004AD1012001B0BDE8F08300BFF06947F287
:10240000000440F08050F061F069C4F2000400F074
:10241000805000900098206840F480702060FEF7A3
:1024200009FE05462068C00506D4FEF703FE401BE2
:102430006428F7D9C0E000BF306A20F001003062A4
:10244000306A20F004003062FEF7F4FD05460227F2
:1024500041F2883497FAA7F097FAA7F000284FF0D6
:10246000200008BF2420305897FAA7F1B1FA81F173
:1024700001F01F01C840C00746D0FEF7DBFD401B3E
:10248000A042E7D998E000BF4FF08070002790FA93
:10249000A0F0C4F24227B0FA80F0002147F82010E3
:1024A000FEF7C8FD022C05464FF0007416D100BFA0
:1024B00094FAA4F0306894FAA4F1B1FA81F101F031
:1024C0001F01C840C00700F07B80FEF7B3FD401B32
:1024D00002284FF00300EBD901E100BF94FAA4F009
:1024E000306894FAA4F1B1FA81F101F01F01C840FB
:1024F000C00700F09D80FEF79DFD401B03284FF0B4
:102500000300EBD3EBE000BFD9F80C00002800F08B
:102510009380052800F0BA80012800F0BB80306A63
:1025200020F001003062306A20F00400B5E000BF06
:10253000306820F480303060306820F480203060D3
:10254000FEF778FD05464FF4003700BF97FAA7F075
:10255000306897FAA7F1B1FA81F101F01F01C84084
:10256000C0073FF41EAEFEF765FD401B64284FF028
:102570000300EBD9B3E000BF306840F48020306046
:10258000306840F480303060FEF754FD05464FF46B
:10259000003400BF94FAA4F0306894FAA4F1B1FAC0
:1025A00081F101F01F01C840C0077FF4FAADFEF7CA
:1025B00041FD401B6428EDD9032001B0BDE8F08344
:1025C000D9F82000B0F5803F06D17168D9F808200D
:1025D00021F40031114371607168D9F8242021F48D
:1025E00074111043084370604FF0807090FAA0F0AF
:1025F000B0FA80F047EA800001210160FEF71AFD81
:1026000004464FF0007500BF95FAA5F0306895FAC2
:10261000A5F1B1FA81F101F01F01C840C00707D14F
:10262000FEF708FD001B02284FF00300ECD956E02E
:10263000002001B0BDE8F083306A20F00100306274
:10264000306A20F004003062FEF7F4FC05460227F1
:1026500041F2883897FAA7F097FAA7F000284FF0D0
:10266000200008BF2420305897FAA7F1B1FA81F171
:1026700001F01F01C840C0073FF4B1AEFEF7DAFC1D
:10268000401B40454FF00300E4D928E0306A40F099
:1026900004003062306A40F001003062FEF7CAFC8C
:1026A0000546022741F2883897FAA7F097FAA7F073
:1026B00000284FF0200008BF2420305897FAA7F1D7
:1026C000B1FA81F101F01F01C840C0077FF487AE65
:1026D000FEF7B0FC401B40454FF00300E4D901B0C9
:1026E000BDE8F0834EF21001CEF200010A68042822
:1026F00022F0040208BF04320A60704770470000ED
:10270000411E0020B0EB116F1CBF012070474EF23C
:102710001002CEF2000251604EF62351CEF20001BB
:10272000F0230B700721906011607047FFF7E6BF40
:10273000FEE7000010B540F29444C2F2000440F2FB
:102740000401C2F200012046002200F0A3FA40F288
:102750003801C2F20001204600F07EFC40F2281150
:10276000C2F20001204600F0CDF82046BDE810403E
:1027700000F088BCFEE700007047000080B5FEF75F
:102780005FFCBDE88040FFF7D1BF000041F20000D0
:10279000C4F202000168002241F0010101604168B9
:1027A000CFF6FF021140416001684FF6FF72CFF68D
:1027B000F66211400160016821F4802101604168E6
:1027C00021F4FE0141604FF41F0181604EF6085074
:1027D000CEF200004FF0006101607047D0F818128F
:1027E000002200200A75704780B5D0F8180240F228
:1027F000CC310278C2F200010A700279437890F875
:1028000002C090F803E00A7142794B7083794A71F3
:10281000C279002081F802C081F803E08B71CA718F
:1028200080BD000010B50121044600F053FA204697
:10283000022100F04FFAD4F8180250B1D4F81C026B
:1028400080688047D4F8180200F01EFE0020C4F80B
:102850001802002010BD000010B5D0F81842216900
:10286000012907D1D0F81C026178C268207890470E
:1028700000202061002010BD014640F27400992222
:10288000C2F200000A807047014640F21C100A2282
:10289000C2F200000A80704770B581210322202314
:1028A000044600F025FB204602210322202300F0ED
:1028B0001FFB204604210322202300F019FB1820CF
:1028C00000F0E4FDC4F81802D0B10646D4F81C02AA
:1028D0000025406835758047204602213246022394
:1028E00000F010FB204602213246082300F00AFBCC
:1028F000204604213246022300F004FB284670BD26
:10290000012070BD00290EBF0220C0F81C1200205B
:102910007047000080B590F8FC31032B05D1944638
:102920000A46D0F818120B7D13B1002080BD00BFFD
:1029300001230B758121634600F07AFB002080BDE6
:1029400080B50A78D0F818C212F0600214D0202A9C
:102950002DD14A78023A092A3CD8DFE802F0053343
:102960003B3B3B3B3B3F494F0CF10801012200F050
:102970009BF8002080BD00BF4A780B2A14D00A2A99
:1029800018D0062A13D1CA78212A3DD0222A47D14D
:10299000CA88D0F81C12022A096828BF022200F057
:1029A00083F8002080BD00BF8878CCF80C000020A0
:1029B00080BD00BF0CF10C01012200F075F8002071
:1029C00080BD00BF0CF10401012200F06DF8002071
:1029D00080BD00BF00F042F8022080BD8A7901234B
:1029E0006146CCF8103000F045F8002080BD00BFF3
:1029F000C878CCF80800002080BD00BF8878CCF8EB
:102A00000400002080BD00BFCA8840F21011C2F24D
:102A10000001092A28BF092200F046F8002080BDE5
:102A20000022002100F040F8002080BD80B5D0F8E1
:102A3000142252689047002080BD000080B51346E4
:102A40000A46002100F05EFA002080BD80B51346E2
:102A50000A46002100F0ECFA002080BD10B580216C
:102A6000044600F0CBFA20460021BDE8104000F0FB
:102A7000C5BA000080B513460A460321C0F8F41118
:102A80000021C0E9423300F03DFA002080BD000083
:102A900080B50521C0F8F41100210022002300F0C8
:102AA00031FA002080BD000080B513460A4602219D
:102AB000C0F8F4110021C0E9063300F0B9FA002093
:102AC00080BD000080B50421C0F8F411002100226F
:102AD000002300F0ADFA002080BD000010B540F2E8
:102AE000B014C2F200040A4602A0214600F064F8C5
:102AF000204610BD437573746F6D204849442043D0
:102B00006F6E66696700000040F238101222C2F250
:102B100000000A807047000010B540F2B01444F283
:102B2000A830C2F200040A46C0F60000214600F0B8
:102B300043F8204610BD000040F24C100422C2F2BF
:102B400000000A807047000010B540F2B014C2F2D5
:102B500000040A4602A0214600F02EF8204610BDCF
:102B6000404D6963726F736F6674000010B540F278
:102B7000B014C2F200040A4602A0214600F01CF87C
:102B8000204610BD436F6E74726F6C6C65720000EE
:102B900010B540F2B014C2F200040A4602A0214669
:102BA00000F00AF8204610BD303030303030303080
:102BB000303031410000000010B5002868D00378A3
:102BC000B3B100F1020E4FF0000C00BF1EF8013C43
:102BD00093B19EF800309BB19EF80130A3B19EF8EE
:102BE00002300CF1040C002B0EF1040EEED10DE0BE
:102BF0004FF0000C0AE000BF4CF0010C06E000BFF3
:102C00004CF0020C02E000BF4CF0030C5FFA8CFCAD
:102C1000022303EB4C03138003220B704A7090F8DD
:102C200000E0BEF1000F33D0023002224FF0000C62
:102C30001AE000BF141DE4B244F0010E0B5501F878
:102C40000EC04378002B08BF10BD941DE4B244F0C1
:102C5000010E0B5501F80EC090F802E00832BEF1EB
:102C6000000F00F1040013D0D3B243F0010401F8C7
:102C700003E001F804C010F8013C4BB1941CE4B22D
:102C800044F0010E0B5501F80EC00378002BD1D192
:102C900010BD0000002804BF0220704780B5D0F8A6
:102CA0001432002B1CBF0023C0F81432002918BFB7
:102CB000C0F81012012180F8FC11027000F0A2F897
:102CC000002080BD80B5D0F82002FEF7BBFA0020BE
:102CD00080BD000080B5D0F82002FEF793FA0020F6
:102CE00080BD0000B0B5044661B1D4F81402426959
:102CF000002A4ED094F8FC0103284AD12046904780
:102D000047E000BFD4F8F401022827D1D4E9071026
:102D1000814209D9081A83B2E061204611461A4659
:102D2000FFF794FE14E000BFA169814220D3B1FBFC
:102D3000F0F202FB1010D8B9D4F8F801814217D292
:102D40002046002100220025FFF780FEC4F8F8513C
:102D5000204600210022002300F0D4F894F800025D
:102D6000012816D1002084F800020020B0BD00BF69
:102D7000D4F81402C16829B194F8FC01032801D1E8
:102D8000204688472046FFF783FE94F8000201287A
:102D9000E8D00020B0BD000010B5044661B1D4F801
:102DA000140282692AB194F8FC01032801D120465B
:102DB0009047002010BD00BFD4F8F4010328F8D1DB
:102DC000D4E9431081420DD9091AC4F80C1181428B
:102DD00038BF084683B2204611461A46FFF72EFE3A
:102DE000002010BDD4F81402016929B194F8FC0147
:102DF000032801D1204688472046FFF763FE0020C4
:102E000010BD000010B5044640F2F46045F60041E4
:102E1000C2F20000C4F20001082202234FF0030CAA
:102E200080E80E100021C0F81C44C4F82002C0E95C
:102E300006110162FEF754FDD4F8200200210022A1
:102E40001823FEF7B3F9D4F820028021002258237A
:102E5000FEF7ACF9D4F82002812100229823FEF776
:102E6000A5F9D4F8200202210022D823FEF79EF90A
:102E7000D4F82002022100224FF48C73FEF796F959
:102E8000D4F82002832100224FF4AC73FEF78EF9B0
:102E9000D4F82002042100224FF4AC73FEF786F927
:102EA000D4F82002852100224FF4CC73FEF77EF97E
:102EB000D4F82002052100224FF4EC73FEF776F9D6
:102EC000D4F82002862100224FF40673FEF76EF933
:102ED000002010BDD0F8200201F07F0200EB42106C
:102EE00000F12A02090658BF00F20A221078704742
:102EF00080B59446D0F820021A466346FEF7C6F91C
:102F0000002080BD80B5D0F82002FEF7E5F9002052
:102F100080BD0000B0B5002100220823044608252A
:102F2000FFF7E6FF2046802100220823C4F8105155
:102F3000FFF7DEFFD4F818020121256284F8FC11A6
:102F400028B1D4F814022179426820469047002025
:102F5000B0BD000090F8FD210146002081F8FC2161
:102F60007047000080B590F8FC11032905D1D0F816
:102F70001412C969002918BF8847002080BD0000CD
:102F8000024600201174704780B5D0F82002FEF789
:102F900095FE002080BD0000B0B500F50275044626
:102FA000284600F04DF894F808020121B4F80E22EA
:102FB000C4F8F41100F01F010229C4F8F82109D067
:102FC00001290DD091B92046294600F061F8002072
:102FD000B0BD00BF2046294600F0A6F90020B0BDD4
:102FE0002046294600F022FA0020B0BD00F0800102
:102FF000204600F003F80020B0BD000080B5D0F8F6
:103000002002FEF78BF9002080BD000080B5D0F8CB
:103010002002FEF76FFE002080BD0000014690F800
:10302000FC01042281F8FD01002081F8FC21704799
:1030300080B5D0F82002FEF79FF9002080BD000087
:103040000A7802704A7842704A8842808A88828070
:10305000C988C1807047000000290EBF0220C0F857
:10306000141200207047000080B5D0F814223AB145
:1030700012689047002818BF0120400080BD00BFA3
:10308000022080BD80B5FFF7C1FF002080BD000099
:10309000B0B582B00D4649780446092900F2F480A3
:1030A000DFE811F00A002000F2003000F2004400D6
:1030B0009400F2006600760094F8FC0100F0FE0037
:1030C000022840F0E180D4F804020322002808BF5F
:1030D0000122214641F80C2F20460222FFF7E4FC92
:1030E00002E100BF94F8FC0100F0FE00022840F06D
:1030F000CB806888012840F0F780D4F814020021C2
:1031000007E000BF6888012840F0EE80D4F8140280
:1031100001218268C4F804122046294690472046BF
:10312000FFF7D0FC002002B0B0BD00BFA888002887
:1031300040F0AA80E888002840F0A68094F8FC01BE
:10314000032800F0A180A87800F07F0520462946DA
:1031500084F8FE51FFF718FF2046FFF7B3FC002D5F
:103160000CBF0120022084F8FC01002002B0B0BD99
:10317000E888012840F0888094F8FC01032841D0B9
:10318000022840F081800020214641F8080F3AE0F3
:10319000688840F2AE15C1B2C2F20005022928705B
:1031A00080F0728094F8FC01032833D0022840F0AC
:1031B0006B800029B3D0032084F8FC0120466160B5
:1031C000FFF752FF0228AAD15EE000BF68884FF0E7
:1031D000FF3101EB1021062956D8DFE801F0053B4D
:1031E0002F555549530000BFD4F810020268207CC7
:1031F0000DF1060190470146BDF80600002865D193
:1032000072E000BF211D20460122FFF74DFC002087
:1032100002B0B0BD002943D0606801283FF47FAF01
:10322000C1B22046FFF702FC297820466160FFF713
:103230001BFF02287FF473AF26E000BFC1B205294F
:1032400056D8DFE801F0035D6165696DD4F81002BE
:103250004268CCE7217CD4F8140200290CBF816AB3
:10326000C16A0DF106008847014602202AE000BF2E
:10327000207C48B9D4F81402416B0DF10600884750
:10328000B9E700BF207CA8B120468021FFF7B6FE39
:1032900020460021FFF7B2FE002002B0B0BD00BF03
:1032A000022084F8FC01002060602046FFF7BEFB8E
:1032B00035E700BFD4F81402016B0DF10600884712
:1032C000014607204870BDF8060068B1EA885AB187
:1032D000904238BF02462046ADF80620FFF7E4FBD7
:1032E000002002B0B0BD00BF002002B0B0BD00BFE2
:1032F000D4F814020DF10602836B204698477AE752
:10330000D4F81002826872E7D4F81002C2686EE73F
:10331000D4F8100202696AE7D4F81002426966E73D
:10332000D4F81002826962E7B0B50D460978044608
:1033300001F06001202907D1D4F8140229468268DF
:10334000204690470020B0BD68782979D0B1012887
:1033500028D0032858D194F8FC01032826D1688886
:1033600028B911F07F0002D02046FFF747FED4F8BD
:10337000140229468268204690472046FFF7A2FBA8
:103380000020B0BD94F8FC01032823D002280FD000
:1033900020468021FFF732FE20460021FFF72EFE57
:1033A00032E000BF94F8FC0103282BD0022807D19B
:1033B000480629D02046FFF721FE0020B0BD00BFFF
:1033C00020468021FFF71AFE20460021FFF716FE57
:1033D0000020B0BD01F07F0004EB001000F11405E7
:1033E0000A0658BF00F582752046FFF773FD0028D6
:1033F00018BF01202860204629460222FFF754FB0F
:103400000020B0BD688808B10020B0BD4806B4D027
:103410002046FFF757FCD4F814022946826820465C
:1034200090472046FFF74EFB0020B0BDB0B50446E4
:1034300090F8FC0103280FD188880D4610F0FE0F8C
:1034400014D020468021FFF7D9FD20460021FFF748
:10345000D5FD0020B0BD00BF20468021FFF7CEFD86
:1034600020460021FFF7CAFD0020B0BDD4F81402A9
:103470002946826820469047E8880028F4D12046F3
:10348000FFF720FB0020B0BD7047000040F2B030D5
:10349000C2F2000070470000B0B5CA78032A0FD806
:1034A000DFE802F002121E280B7848F68F1430F87D
:1034B00023C04FEA430E04EA0C0404F5007424E030
:1034C0000B784FEA430E22E00B7848F68F1430F861
:1034D00023C04FEA430E04EA0C0404F5806414E0B0
:1034E0000B7848F68F1430F823C04FEA430E04EAF5
:1034F0000C040AE00B7848F68F1430F823C04FEA2A
:10350000430E04EA0C0404F5C06420F8234030F8AC
:103510001E4040F60F72224048F280041A43CFF654
:10352000FF74224320F81E208A7A48F2800C002A79
:1035300000EB4E024AD0158840F60F6425400CF58A
:10354000807425431580CD88B0F8504025F00105E2
:1035500004EBC30400EB4404C4F800540D89B0F834
:10356000504025F0010504EBC30300EB4300C0F815
:10357000085448781188002801F480404AD038B1B6
:10358000108840F60F7108400CF580410843108008
:103590001088400607D5108840F60F7108400CF1DE
:1035A000400108431080108840F60F7108400CF568
:1035B000804108431080108840F63F71084040EA7F
:1035C0000C001080108843F60F714AE08C884D780B
:1035D00024F0010EB0F85040002D04EBC30447D096
:1035E00000EB4400C0F800E41088400607D51088BE
:1035F00040F60F7108400CF140010843108010881C
:1036000040F63F7108400CF120014140002011803C
:10361000B0BD00BF38B1108840F60F7108400CF5FE
:103620008041084310801088400607D5108840F676
:103630000F7108400CF1400108431080108840F6DB
:103640000F7108400CF1400108431080108843F6C8
:103650000F7108400CF5405148401080108840F62A
:103660003F71084040EA0C0100201180B0BD00BF4E
:10367000DD0000EB4403C3F808E4B0F850400B69E8
:1036800029193F2B00F20C4012D34FF4F8445D018E
:1036900004EA4314DB0608BF04F5F84505F4F843D3
:1036A00003F5004340F811301088400413D50AE0B8
:1036B00003F0010505EB53039B029BB240F8113068
:1036C0001088400407D5108840F60F7108400CF5AB
:1036D000804108431080108843F60F7108400CF5B4
:1036E0004051414000201180B0BD000000207047D3
:1036F000B0B50C784B78897A024630F824004CF249
:10370000800C4CF2800500294FEA44013AD0002B8E
:1037100000F4804040D040B132F8110040F60F7301
:10372000184040EA0C0022F8110032F8110043F66C
:103730000F7E400640F63F7009D532F8113040F652
:103740000F742340ACF57F54234322F8113032F834
:10375000113040F60F7423402B43ACF5804522F81E
:10376000113032F811301840284322F8110032F895
:103770001100ACF5804300EA0E000343002022F85C
:103780001130B0BDF3B1400640F63F7EEFD5ACF549
:103790007F5540F60F70E4E740B132F8110040F673
:1037A0000F73184040EA0C0022F8110032F81100A3
:1037B000ACF57F55400640F63F7E43F60F70BCD413
:1037C000C5E700BF400443F60F7ED0D540F60F702A
:1037D000C7E7000000207047002070470146012025
:1037E000A1F8400000220020A1F84020A1F84420C8
:1037F000A1F85020704700000146B0F8400044F2A4
:10380000FF2202400020A1F84020704700207047AE
:1038100010B502460878497832F8203000294FEA7E
:1038200040010DD05B0648F2B00E40F63F731CD548
:1038300048F2B000CFF6FF7000F1100C0CE000BFB2
:103840004BF2800E580443F60F730ED54BF28000F6
:10385000CFF6FF7000F5805C32F8110040F60F746F
:10386000204040EA0C0022F8110032F81100184004
:1038700080EA0E03002022F8113010BD0A788AB1C8
:10388000497830F8223048F2900C00294FEA420182
:1038900018D040F63F721A4082EA0C0220F811203C
:1038A00000207047018843F63F73194048F29003A7
:1038B000CFF6FF7303F58053594020F82210002003
:1038C000704700BF43F60F721A400CF57F635A40F1
:1038D00020F81120002070472DE9F0418D690F6913
:1038E0004A788B7AEE1B38BF002688BF3D46012AF6
:1038F0008E6135D1D3B30F7830F82720B0F85060FF
:103900007B0006EBC70700EB47072E04C7F80454FB
:1039100000F0DA8052064FF0080258BF06228A5A99
:10392000D1F814C000EB420101F5806EA9B201315B
:103930004FF0FF32C1F3410402EB5102002C4FEA79
:10394000510100F0AE80654635F8027B7646012CC9
:1039500026F8047B6CD10139B646AC46A1E000BF25
:1039600043B3002A40D009787EE000BF2A0400F06B
:10397000D7808A88D1F814C000EB420202F5806E2D
:10398000AAB2531C4FF0FF3202EB5308C3F34102BB
:10399000002A4FEA530300F0B080664636F8024B27
:1039A0007746012A27F8044B66D1013BBE46B44650
:1039B000A3E000BFB0F8502009783F2D02EBC10210
:1039C00000F20C432AD36F014FF4F84606EA45167D
:1039D000ED0608BF06F5F84707F4F84707F5004776
:1039E00043F8127040E000BFB0F8502009783F2D36
:1039F0004FEAC10C02EBC10400F2044224D36B0174
:103A00004FF4F84707EA4517EE0608BF07F5F843F5
:103A100003F4F84303F500431CE000BF05F0010781
:103A200007EB5507BF02BFB243F812701CE000BF9E
:103A3000BCF80250022CAEF8045029D10EF1080E49
:103A40000CF1040C02392CE005F0010303EB5503E3
:103A50009B029BB242F81430B0F85020624400EB55
:103A6000420202F20C4213604BF2800200EB810131
:103A700043F60F7064E000BFBCF80240022AAEF8C3
:103A8000044031D10EF1080E0CF1040C023B34E07D
:103A9000BCF804400CF1060CAEF808400EF10C0E18
:103AA0000339032A10D3AEF11002ACF1080500BFB0
:103AB00035F8087F043922F8107F6F889780AF8827
:103AC0001781EF889781F3D130F8131040F60F7209
:103AD00011404BF28002CFF6FF72114301F5805185
:103AE00020F8131026E000BFBCF804200CF1060CEF
:103AF000AEF808200EF10C0E033BB8F1030F0FD304
:103B0000AEF11004ACF1080232F8087F043B24F84F
:103B1000107F5788A78097882781D788A781F3D1FE
:103B2000B0F85020097802EBC10200EB4202C2F863
:103B300004544B0000EB430148F2B00240F63F70E2
:103B40000B881840424000200A80BDE8F081000048
:103B50000146B0F8400040F43D420020A1F840206A
:103B60007047000040F2F460C2F20000FDF722BC92
:103B7000B0F8440070470000B0B5002B3ED000EB19
:103B8000420000F58062581C4FF0FF3303EB500CED
:103B9000C0F341034FEA500053B196465EF8045B10
:103BA0000C46012B24F8025B04D10138214611E0B8
:103BB00096460FE05568022B4D8005D102F1080EA4
:103BC0000431023806E000BF936802F10C0E8B80CE
:103BD00006310338BCF1030F38BFB0BDAEF110029F
:103BE000083900BF52F8103F043821F8083FD2E9E5
:103BF0000135D4684B808D80CC80F3D1B0BD0000FE
:103C000000207047002904BF8021A0F84C1000203C
:103C100070470000B0B5002B3ED000EB420000F52D
:103C2000806E581C4FF0FF32C0F3410302EB500C82
:103C30004FEA5000EBB10A4632F8025B7446012BA2
:103C400024F8045B04D10138A646114611E000BFF8
:103C50004A88022BAEF8042004D10EF1080E04317C
:103C6000023806E08A880631AEF808200EF10C0E04
:103C70000338BCF1030F38BFB0BDAEF110020839F4
:103C800031F8083F043822F8103F4B8893808B8826
:103C90001381CB889381F3D1B0BD0000FEE7000013
:103CA000B0B540F2240CC2F2000C9CF8031003786B
:103CB00021F0100190F804E0002B18BF012341EA25
:103CC00003118CF80310437821F020014279002B76
:103CD00018BF012341EA43118CF80310837821F0C7
:103CE00040018479002B18BF012341EA83118CF82D
:103CF0000310C3789CF80250002B18BF0123BEF1BB
:103D0000000F01F0780118BF4FF0010E002A41EAC0
:103D1000C31118BF0122002C18BF0124C3797144BC
:103D200041EA420105F00F02002B18BF0123057A7A
:103D300042EA841242EAC312002D18BF0125437AD9
:103D400042EA0512002B18BF0123807A42EA43128F
:103D50008CF80220002818BF012041EA80008CF86E
:103D60000300B0BD10B540F2240CC2F2000C9CF868
:103D700002E004462EF00F0E002818BF0124744400
:103D80000029214618BF0231002818BF21468CF8AF
:103D900002101AB113B9042005E000BF32B9002B9C
:103DA00008BF10BD082008438CF8020010BD0000B9
:103DB00080B540F224031228C2F200030AD013286F
:103DC00018BF80BD03F10D0C03F10C0E03F10B00C5
:103DD0000A3305E003F1090C03F1080ED81D063380
:103DE0001970090A0170100A8EF800208CF8000082
:103DF00080BD000040F2D430C2F2000040F6000264
:103E00001023C4F201028385202300210261826114
:103E100083860262022382620122016081818173B2
:103E200081608182817580F82E1080F8361083833E
:103E30008177828480F826107047000080B540F2B8
:103E40000C40C2F2000001238381022383824FF4DD
:103E5000806383834FF4005383844FF4006383852E
:103E6000202383871023A0F84430082340F6004124
:103E7000A0F84C304FF40073C4F201018022A0F886
:103E800054304FF48043A1F5806C82800022816021
:103E900001618161016281624FF4004E81630164BE
:103EA00081648165A0F85C3001664FF4807301671E
:103EB0004FF48051C0F800C082718273827582779E
:103EC00080F8262080F82E20C0F830C0A0F834E01A
:103ED00080F8362080F83E2080F8462080F84E207A
:103EE000C0F850C080F8562080F85E20A0F864E04A
:103EF00080F86620C0F868C0A0F86C3080F86E20AA
:103F0000A0F8741080F8762080BD000040F2844054
:103F1000C2F2000000210160818081718160818195
:103F20008173704794B0FDF793F84FF480304FF0F1
:103F300002080B90CDE911804FF4E0104FF0010A18
:103F4000002613900AA8CDF828A00C96FEF71EF9BB
:103F50000F20CDE905084FF48060CDE9080605A8DB
:103F600002210796FDF788FF122001904FF40040D0
:103F7000CDE9030601A8FDF7EBFEFEF7B5F844F620
:103F8000D351C1F26201A0FB01018809FEF7B8FB21
:103F900004204FF00409FEF7A5FB4FF0FF3000218D
:103FA0000022FDF7C7F841F218070D96C4F2020788
:103FB000386840F6000440F0200038603868C4F2E9
:103FC000010400F020000590059838684FF4007156
:103FD00040F0040038603868002200F004000590CA
:103FE000059838684FF4007B40F008003860386866
:103FF00000F00800059005982046FDF715F848F2F6
:1040000080100AA90AAD81E8410420462946FCF740
:10401000FFFE4FF63B400AA981E8410404F58060A9
:104020002946FCF7F5FE20462946CDE90ABACDE936
:104030000C68FCF7EDFE57F8040C002140F001007D
:1040400047F8040C57F8040C002200F001000A9015
:104050000A980B20FDF76EF80B20FDF75DF840F293
:104060005015C2F2000504F5E0502C4644F8180F34
:104070004FF480704FF460214FF0060BC5E90760E4
:1040800020466963C5E909ABEE62FCF739FACDE970
:104090000A6A0AAE20463146CDF83080FCF7F8F8BF
:1040A00020463146CDE90AA8FCF7F2F8032720465E
:1040B0003146CDF828800B97FCF7EAF820463146C8
:1040C000CDE90A79FCF7E4F8052720463146CDF81A
:1040D00028900B97FCF7DCF820463146CDE90A7BA7
:1040E000FCF7D6F8FEF726FB40F2BC60C2F20000F7
:1040F000FCF708FE204629460622FCF7F7FA204680
:10410000FCF7C8FBFFF79AFEFFF774FEFFF7FEFE11
:1041100040F2B86540F22404C2F20005C2F2000485
:1041200000F060F800F008F800F01AF9286821465D
:104130001422FEF7EFFBF3E72DE9F04F40F2981061
:10414000C2F200000178012918BFBDE8F08FB0F974
:10415000063047F6601CCFF6FE7C43F2BD5A47F2AC
:10416000007803FB0CF2C8F2C61AB0F90840C0F29E
:10417000010882FB0A2E08F57A66B0F9022004FBDA
:1041800006F787FB0A7902FB08F787FB0A7BB0F981
:10419000047003FB0CE307FB0CF181FB0A15D90A41
:1041A00001EBD37104FB069643F6B044091B418230
:1041B000F10A01EBD67102FB08B221448182D10AD7
:1041C00001EBD27107FB0C5201F58941C181D10A83
:1041D00001EBD2710023091BC0F80A300182037081
:1041E000BDE8F08F70B584B040F20C46C2F2000614
:1041F00030680021CDF80B100291019138B1B188DF
:10420000FCF70CFFB0FA80F040098DF80400B068AC
:1042100038B1B189FCF702FFB0FA80F040098DF89F
:104220000500306938B1B18AFCF7F8FEB0FA80F0C9
:1042300040098DF80600B06938B1B18BFCF7EEFE8D
:10424000B0FA80F040098DF80700306A38B1B18CBF
:10425000FCF7E4FEB0FA80F040098DF80800B06A7F
:1042600038B1B18DFCF7DAFEB0FA80F040098DF874
:104270000900306B38B1B18EFCF7D0FEB0FA80F097
:1042800040098DF80A00B06B38B1B18FFCF7C6FE5B
:10429000B0FA80F040098DF80B00306C40B1B6F8F0
:1042A0004410FCF7BBFEB0FA80F040098DF80C001A
:1042B000B06C40B1B6F84C10FCF7B0FEB0FA80F02C
:1042C00040098DF80D00306D40B1B6F85410FCF780
:1042D000A5FEB0FA80F040098DF80E00B06D18B15F
:1042E000B6F85C10FCF79AFE306E18B1B6F86410A0
:1042F000FCF794FEB06E18B1B6F86C10FCF78EFEA9
:10430000306F18B1B6F87410FCF788FE01A8FFF7FB
:10431000C7FCB06DB6F85C10FCF780FEB0FA80F216
:10432000306EB6F864105409FCF778FEB0FA80F2EB
:10433000B06EB6F86C105509FCF770FEB0FA80F25A
:10434000306FB6F874105609FCF768FEB0FA80F0CA
:104350004309204629463246FFF704FD04B070BDEC
:1043600010B540F29814C2F20004B4F90E10B4F97A
:1043700010201220FFF71CFDB4F91210B4F914201C
:104380001320BDE81040FFF713BD02E008C8121F5C
:1043900008C1002AFAD170477047002001E001C12E
:1043A000121F002AFBD17047B203580062006F0051
:1043B00078002000530065006300750072006900FA
:1043C0007400790020004D006500740068006F00E3
:1043D0006400200033002C002000560065007200AD
:1043E000730069006F006E00200031002E00300065
:1043F00030002C002000A9002000320030003000E6
:10440000350020004D006900630072006F007300EA
:104410006F0066007400200043006F00720070009F
:104420006F0072006100740069006F006E002E0062
:10443000200041006C006C002000720069006700E1
:10444000680074007300200072006500730065004E
:1044500072007600650064002E000001020000007A
:104460000001020304010203040607080902030411
:1044700005060708090A0B0C0D0E0F1010000000AE
:10448000A04400080000002050010000480100087E
:104490009045000850010020D01100009A43000808
:1044A0001122C013092B1B0839041A49041A6D0480
:1044B0001A910413DD2A1B0819081114A24A0403D7
:1044C0001114011399281B0825041B412924311AB2
:1044D000590C13DD271B08E904C11A791869041A5D
:1044E0008904411409029913040125A0FA0904154D
:1044F00002FF5D011311214601012581141B1302E6
:10450000251607058103201D04070502071B08095E
:104510002E1504FF5D032A1B286009018340010456
:104520002016856316051C0705832B4D020705041D
:10453000391A85071D4007050507151009040215DE
:1045400001FF5D022A09401C2286072E4A86192295
:10455000031FFFFD1304064119190C192213110141
:1045600044012202130A0629085A40FE14201D02A3
:104570001B0819041A35041B1201BA180DFFFF0895
:104580005E048E02140101020325050004030904E0
:04000005080000ED02
:00000001FF
